{
    "contractName": "PolicyManagement",
    "abi": [
        {
            "inputs": [
                {
                    "internalType": "address",
                    "name": "_roleManagementAddress",
                    "type": "address"
                },
                {
                    "internalType": "int256",
                    "name": "_initialPrice",
                    "type": "int256"
                }
            ],
            "stateMutability": "nonpayable",
            "type": "constructor"
        },
        {
            "anonymous": false,
            "inputs": [
                {
                    "indexed": false,
                    "internalType": "uint256",
                    "name": "policyID",
                    "type": "uint256"
                },
                {
                    "indexed": true,
                    "internalType": "address",
                    "name": "admin",
                    "type": "address"
                },
                {
                    "indexed": false,
                    "internalType": "string",
                    "name": "insurancePlan",
                    "type": "string"
                },
                {
                    "indexed": false,
                    "internalType": "string",
                    "name": "basePremiumRate",
                    "type": "string"
                },
                {
                    "indexed": false,
                    "internalType": "uint256",
                    "name": "deductible",
                    "type": "uint256"
                },
                {
                    "indexed": false,
                    "internalType": "uint256",
                    "name": "insuranceCoverage",
                    "type": "uint256"
                },
                {
                    "indexed": false,
                    "internalType": "uint256",
                    "name": "thirdPartyLiability",
                    "type": "uint256"
                },
                {
                    "indexed": false,
                    "internalType": "string[]",
                    "name": "cover",
                    "type": "string[]"
                }
            ],
            "name": "PolicyCreated",
            "type": "event"
        },
        {
            "anonymous": false,
            "inputs": [
                {
                    "indexed": true,
                    "internalType": "address",
                    "name": "user",
                    "type": "address"
                },
                {
                    "indexed": false,
                    "internalType": "uint256",
                    "name": "policyID",
                    "type": "uint256"
                },
                {
                    "indexed": false,
                    "internalType": "uint256",
                    "name": "premiumPriceETH",
                    "type": "uint256"
                }
            ],
            "name": "PolicySelected",
            "type": "event"
        },
        {
            "inputs": [
                {
                    "internalType": "uint256",
                    "name": "",
                    "type": "uint256"
                }
            ],
            "name": "policies",
            "outputs": [
                {
                    "internalType": "uint256",
                    "name": "policyID",
                    "type": "uint256"
                },
                {
                    "internalType": "string",
                    "name": "insurancePlan",
                    "type": "string"
                },
                {
                    "internalType": "string",
                    "name": "basePremiumRate",
                    "type": "string"
                },
                {
                    "internalType": "uint256",
                    "name": "deductible",
                    "type": "uint256"
                },
                {
                    "internalType": "uint256",
                    "name": "insuranceCoverage",
                    "type": "uint256"
                },
                {
                    "internalType": "uint256",
                    "name": "thirdPartyLiability",
                    "type": "uint256"
                }
            ],
            "stateMutability": "view",
            "type": "function",
            "constant": true
        },
        {
            "inputs": [],
            "name": "policyCount",
            "outputs": [
                {
                    "internalType": "uint256",
                    "name": "",
                    "type": "uint256"
                }
            ],
            "stateMutability": "view",
            "type": "function",
            "constant": true
        },
        {
            "inputs": [],
            "name": "priceFeed",
            "outputs": [
                {
                    "internalType": "contract MockV3Aggregator",
                    "name": "",
                    "type": "address"
                }
            ],
            "stateMutability": "view",
            "type": "function",
            "constant": true
        },
        {
            "inputs": [
                {
                    "internalType": "string",
                    "name": "_insurancePlan",
                    "type": "string"
                },
                {
                    "internalType": "string",
                    "name": "_basePremiumRate",
                    "type": "string"
                },
                {
                    "internalType": "uint256",
                    "name": "_deductible",
                    "type": "uint256"
                },
                {
                    "internalType": "uint256",
                    "name": "_insuranceCoverage",
                    "type": "uint256"
                },
                {
                    "internalType": "uint256",
                    "name": "_thirdPartyLiability",
                    "type": "uint256"
                },
                {
                    "internalType": "string[]",
                    "name": "_cover",
                    "type": "string[]"
                }
            ],
            "name": "createPolicy",
            "outputs": [],
            "stateMutability": "nonpayable",
            "type": "function"
        },
        {
            "inputs": [
                {
                    "internalType": "uint256",
                    "name": "_policyID",
                    "type": "uint256"
                }
            ],
            "name": "viewPolicy",
            "outputs": [
                {
                    "internalType": "uint256",
                    "name": "policyID",
                    "type": "uint256"
                },
                {
                    "internalType": "string",
                    "name": "insurancePlan",
                    "type": "string"
                },
                {
                    "internalType": "string",
                    "name": "basePremiumRate",
                    "type": "string"
                },
                {
                    "internalType": "uint256",
                    "name": "deductible",
                    "type": "uint256"
                },
                {
                    "internalType": "uint256",
                    "name": "insuranceCoverage",
                    "type": "uint256"
                },
                {
                    "internalType": "uint256",
                    "name": "thirdPartyLiability",
                    "type": "uint256"
                },
                {
                    "internalType": "string[]",
                    "name": "cover",
                    "type": "string[]"
                }
            ],
            "stateMutability": "view",
            "type": "function",
            "constant": true
        },
        {
            "inputs": [],
            "name": "viewAllPolicies",
            "outputs": [
                {
                    "components": [
                        {
                            "internalType": "uint256",
                            "name": "policyID",
                            "type": "uint256"
                        },
                        {
                            "internalType": "string",
                            "name": "insurancePlan",
                            "type": "string"
                        },
                        {
                            "internalType": "string",
                            "name": "basePremiumRate",
                            "type": "string"
                        },
                        {
                            "internalType": "uint256",
                            "name": "deductible",
                            "type": "uint256"
                        },
                        {
                            "internalType": "uint256",
                            "name": "insuranceCoverage",
                            "type": "uint256"
                        },
                        {
                            "internalType": "uint256",
                            "name": "thirdPartyLiability",
                            "type": "uint256"
                        },
                        {
                            "internalType": "string[]",
                            "name": "cover",
                            "type": "string[]"
                        }
                    ],
                    "internalType": "struct PolicyManagement.Policy[]",
                    "name": "",
                    "type": "tuple[]"
                }
            ],
            "stateMutability": "view",
            "type": "function",
            "constant": true
        },
        {
            "inputs": [
                {
                    "internalType": "uint256",
                    "name": "_policyID",
                    "type": "uint256"
                },
                {
                    "internalType": "uint256",
                    "name": "_premiumInUSD",
                    "type": "uint256"
                }
            ],
            "name": "selectPolicy",
            "outputs": [],
            "stateMutability": "payable",
            "type": "function",
            "payable": true
        },
        {
            "inputs": [
                {
                    "internalType": "uint256",
                    "name": "amountInUSD",
                    "type": "uint256"
                }
            ],
            "name": "getUSDToETH",
            "outputs": [
                {
                    "internalType": "uint256",
                    "name": "",
                    "type": "uint256"
                }
            ],
            "stateMutability": "view",
            "type": "function",
            "constant": true
        },
        {
            "inputs": [
                {
                    "internalType": "address",
                    "name": "_user",
                    "type": "address"
                }
            ],
            "name": "getUserSelectedPolicies",
            "outputs": [
                {
                    "internalType": "uint256[]",
                    "name": "policyIDs",
                    "type": "uint256[]"
                },
                {
                    "internalType": "uint256[]",
                    "name": "premiumPricesETH",
                    "type": "uint256[]"
                },
                {
                    "components": [
                        {
                            "internalType": "uint256",
                            "name": "policyID",
                            "type": "uint256"
                        },
                        {
                            "internalType": "string",
                            "name": "insurancePlan",
                            "type": "string"
                        },
                        {
                            "internalType": "string",
                            "name": "basePremiumRate",
                            "type": "string"
                        },
                        {
                            "internalType": "uint256",
                            "name": "deductible",
                            "type": "uint256"
                        },
                        {
                            "internalType": "uint256",
                            "name": "insuranceCoverage",
                            "type": "uint256"
                        },
                        {
                            "internalType": "uint256",
                            "name": "thirdPartyLiability",
                            "type": "uint256"
                        },
                        {
                            "internalType": "string[]",
                            "name": "cover",
                            "type": "string[]"
                        }
                    ],
                    "internalType": "struct PolicyManagement.Policy[]",
                    "name": "policyDetails",
                    "type": "tuple[]"
                }
            ],
            "stateMutability": "view",
            "type": "function",
            "constant": true
        }
    ],
    "bytecode": "0x60806040523480156200001157600080fd5b5060405162003534380380620035348339818101604052810190620000379190620001ae565b816000806101000a81548173ffffffffffffffffffffffffffffffffffffffff021916908373ffffffffffffffffffffffffffffffffffffffff1602179055506008816040516200008890620000fb565b6200009592919062000260565b604051809103906000f080158015620000b2573d6000803e3d6000fd5b50600160006101000a81548173ffffffffffffffffffffffffffffffffffffffff021916908373ffffffffffffffffffffffffffffffffffffffff16021790555050506200028d565b610ae58062002a4f83390190565b600080fd5b600073ffffffffffffffffffffffffffffffffffffffff82169050919050565b60006200013b826200010e565b9050919050565b6200014d816200012e565b81146200015957600080fd5b50565b6000815190506200016d8162000142565b92915050565b6000819050919050565b620001888162000173565b81146200019457600080fd5b50565b600081519050620001a8816200017d565b92915050565b60008060408385031215620001c857620001c762000109565b5b6000620001d8858286016200015c565b9250506020620001eb8582860162000197565b9150509250929050565b6000819050919050565b600060ff82169050919050565b6000819050919050565b600062000237620002316200022b84620001f5565b6200020c565b620001ff565b9050919050565b620002498162000216565b82525050565b6200025a8162000173565b82525050565b60006040820190506200027760008301856200023e565b6200028660208301846200024f565b9392505050565b6127b2806200029d6000396000f3fe6080604052600436106100865760003560e01c8063a0434db011610059578063a0434db014610161578063b496b88e1461017d578063c160693d146101ba578063d3e89483146101e5578063de54d4291461022757610086565b80630403bee71461008b578063741bef1a146100b457806390ca93f4146100df57806397e689111461011e575b600080fd5b34801561009757600080fd5b506100b260048036038101906100ad91906116eb565b610252565b005b3480156100c057600080fd5b506100c9610465565b6040516100d6919061184b565b60405180910390f35b3480156100eb57600080fd5b50610106600480360381019061010191906118a4565b61048b565b60405161011593929190611c3c565b60405180910390f35b34801561012a57600080fd5b5061014560048036038101906101409190611c88565b610950565b6040516101589796959493929190611d94565b60405180910390f35b61017b60048036038101906101769190611e18565b610be9565b005b34801561018957600080fd5b506101a4600480360381019061019f9190611c88565b610e08565b6040516101b19190611e58565b60405180910390f35b3480156101c657600080fd5b506101cf610f18565b6040516101dc9190611e73565b60405180910390f35b3480156101f157600080fd5b5061020c60048036038101906102079190611c88565b61120c565b60405161021e96959493929190611e95565b60405180910390f35b34801561023357600080fd5b5061023c611358565b6040516102499190611e58565b60405180910390f35b60008054906101000a900473ffffffffffffffffffffffffffffffffffffffff1673ffffffffffffffffffffffffffffffffffffffff166324d7806c336040518263ffffffff1660e01b81526004016102ab9190611f13565b602060405180830381865afa1580156102c8573d6000803e3d6000fd5b505050506040513d601f19601f820116820180604052508101906102ec9190611f66565b61032b576040517f08c379a000000000000000000000000000000000000000000000000000000000815260040161032290611fdf565b60405180910390fd5b6004600081548092919061033e9061202e565b91905055506040518060e001604052806004548152602001878152602001868152602001858152602001848152602001838152602001828152506002600060045481526020019081526020016000206000820151816000015560208201518160010190816103ac9190612278565b5060408201518160020190816103c29190612278565b50606082015181600301556080820151816004015560a0820151816005015560c08201518160060190805190602001906103fd92919061135e565b509050503373ffffffffffffffffffffffffffffffffffffffff167f85bb9410424bd05b4f4fc44e597715781ac6958b4ebd13548b18e63bb796d9d96004548888888888886040516104559796959493929190611d94565b60405180910390a2505050505050565b600160009054906101000a900473ffffffffffffffffffffffffffffffffffffffff1681565b60608060606000600360008673ffffffffffffffffffffffffffffffffffffffff1673ffffffffffffffffffffffffffffffffffffffff1681526020019081526020016000208054905090506000811161051a576040517f08c379a0000000000000000000000000000000000000000000000000000000008152600401610511906123bc565b60405180910390fd5b60008167ffffffffffffffff811115610536576105356114a4565b5b6040519080825280602002602001820160405280156105645781602001602082028036833780820191505090505b50905060008267ffffffffffffffff811115610583576105826114a4565b5b6040519080825280602002602001820160405280156105b15781602001602082028036833780820191505090505b50905060008367ffffffffffffffff8111156105d0576105cf6114a4565b5b60405190808252806020026020018201604052801561060957816020015b6105f66113b7565b8152602001906001900390816105ee5790505b50905060005b8481101561093b576000600360008b73ffffffffffffffffffffffffffffffffffffffff1673ffffffffffffffffffffffffffffffffffffffff168152602001908152602001600020828154811061066a576106696123dc565b5b906000526020600020906002020190508060000154858381518110610692576106916123dc565b5b60200260200101818152505080600101548483815181106106b6576106b56123dc565b5b60200260200101818152505060026000826000015481526020019081526020016000206040518060e0016040529081600082015481526020016001820180546106fe906120a5565b80601f016020809104026020016040519081016040528092919081815260200182805461072a906120a5565b80156107775780601f1061074c57610100808354040283529160200191610777565b820191906000526020600020905b81548152906001019060200180831161075a57829003601f168201915b50505050508152602001600282018054610790906120a5565b80601f01602080910402602001604051908101604052809291908181526020018280546107bc906120a5565b80156108095780601f106107de57610100808354040283529160200191610809565b820191906000526020600020905b8154815290600101906020018083116107ec57829003601f168201915b5050505050815260200160038201548152602001600482015481526020016005820154815260200160068201805480602002602001604051908101604052809291908181526020016000905b82821015610901578382906000526020600020018054610874906120a5565b80601f01602080910402602001604051908101604052809291908181526020018280546108a0906120a5565b80156108ed5780601f106108c2576101008083540402835291602001916108ed565b820191906000526020600020905b8154815290600101906020018083116108d057829003601f168201915b505050505081526020019060010190610855565b505050508152505083838151811061091c5761091b6123dc565b5b60200260200101819052505080806109339061202e565b91505061060f565b50828282965096509650505050509193909250565b60006060806000806000606060008811801561096e57506004548811155b6109ad576040517f08c379a00000000000000000000000000000000000000000000000000000000081526004016109a490612457565b60405180910390fd5b6000600260008a8152602001908152602001600020905080600001548160010182600201836003015484600401548560050154866006018580546109f0906120a5565b80601f0160208091040260200160405190810160405280929190818152602001828054610a1c906120a5565b8015610a695780601f10610a3e57610100808354040283529160200191610a69565b820191906000526020600020905b815481529060010190602001808311610a4c57829003601f168201915b50505050509550848054610a7c906120a5565b80601f0160208091040260200160405190810160405280929190818152602001828054610aa8906120a5565b8015610af55780601f10610aca57610100808354040283529160200191610af5565b820191906000526020600020905b815481529060010190602001808311610ad857829003601f168201915b5050505050945080805480602002602001604051908101604052809291908181526020016000905b82821015610bc9578382906000526020600020018054610b3c906120a5565b80601f0160208091040260200160405190810160405280929190818152602001828054610b68906120a5565b8015610bb55780601f10610b8a57610100808354040283529160200191610bb5565b820191906000526020600020905b815481529060010190602001808311610b9857829003601f168201915b505050505081526020019060010190610b1d565b505050509050975097509750975097509750975050919395979092949650565b60008054906101000a900473ffffffffffffffffffffffffffffffffffffffff1673ffffffffffffffffffffffffffffffffffffffff16634209fff1336040518263ffffffff1660e01b8152600401610c429190611f13565b602060405180830381865afa158015610c5f573d6000803e3d6000fd5b505050506040513d601f19601f82011682018060405250810190610c839190611f66565b610cc2576040517f08c379a0000000000000000000000000000000000000000000000000000000008152600401610cb9906124e9565b60405180910390fd5b600082118015610cd457506004548211155b610d13576040517f08c379a0000000000000000000000000000000000000000000000000000000008152600401610d0a90612457565b60405180910390fd5b6000610d1e82610e08565b9050600360003373ffffffffffffffffffffffffffffffffffffffff1673ffffffffffffffffffffffffffffffffffffffff1681526020019081526020016000206040518060400160405280858152602001838152509080600181540180825580915050600190039060005260206000209060020201600090919091909150600082015181600001556020820151816001015550503373ffffffffffffffffffffffffffffffffffffffff167f81d5f59a643c8ddcdaed0591e4b6acf04c9efb492a0943c89e9c472073c8491e8483604051610dfb929190612509565b60405180910390a2505050565b600080600160009054906101000a900473ffffffffffffffffffffffffffffffffffffffff1673ffffffffffffffffffffffffffffffffffffffff1663feaf968c6040518163ffffffff1660e01b815260040160a060405180830381865afa158015610e78573d6000803e3d6000fd5b505050506040513d601f19601f82011682018060405250810190610e9c91906125bf565b50505091505060008113610ee5576040517f08c379a0000000000000000000000000000000000000000000000000000000008152600401610edc90612686565b60405180910390fd5b6000819050600081670de0b6b3a764000086610f0191906126a6565b610f0b9190612717565b9050809350505050919050565b6060600060045467ffffffffffffffff811115610f3857610f376114a4565b5b604051908082528060200260200182016040528015610f7157816020015b610f5e6113b7565b815260200190600190039081610f565790505b5090506000600190505b600454811161120457600260008281526020019081526020016000206040518060e001604052908160008201548152602001600182018054610fbc906120a5565b80601f0160208091040260200160405190810160405280929190818152602001828054610fe8906120a5565b80156110355780601f1061100a57610100808354040283529160200191611035565b820191906000526020600020905b81548152906001019060200180831161101857829003601f168201915b5050505050815260200160028201805461104e906120a5565b80601f016020809104026020016040519081016040528092919081815260200182805461107a906120a5565b80156110c75780601f1061109c576101008083540402835291602001916110c7565b820191906000526020600020905b8154815290600101906020018083116110aa57829003601f168201915b5050505050815260200160038201548152602001600482015481526020016005820154815260200160068201805480602002602001604051908101604052809291908181526020016000905b828210156111bf578382906000526020600020018054611132906120a5565b80601f016020809104026020016040519081016040528092919081815260200182805461115e906120a5565b80156111ab5780601f10611180576101008083540402835291602001916111ab565b820191906000526020600020905b81548152906001019060200180831161118e57829003601f168201915b505050505081526020019060010190611113565b5050505081525050826001836111d59190612748565b815181106111e6576111e56123dc565b5b602002602001018190525080806111fc9061202e565b915050610f7b565b508091505090565b6002602052806000526040600020600091509050806000015490806001018054611235906120a5565b80601f0160208091040260200160405190810160405280929190818152602001828054611261906120a5565b80156112ae5780601f10611283576101008083540402835291602001916112ae565b820191906000526020600020905b81548152906001019060200180831161129157829003601f168201915b5050505050908060020180546112c3906120a5565b80601f01602080910402602001604051908101604052809291908181526020018280546112ef906120a5565b801561133c5780601f106113115761010080835404028352916020019161133c565b820191906000526020600020905b81548152906001019060200180831161131f57829003601f168201915b5050505050908060030154908060040154908060050154905086565b60045481565b8280548282559060005260206000209081019282156113a6579160200282015b828111156113a55782518290816113959190612278565b509160200191906001019061137e565b5b5090506113b391906113f4565b5090565b6040518060e00160405280600081526020016060815260200160608152602001600081526020016000815260200160008152602001606081525090565b5b80821115611414576000818161140b9190611418565b506001016113f5565b5090565b508054611424906120a5565b6000825580601f106114365750611455565b601f0160209004906000526020600020908101906114549190611458565b5b50565b5b80821115611471576000816000905550600101611459565b5090565b6000604051905090565b600080fd5b600080fd5b600080fd5b600080fd5b6000601f19601f8301169050919050565b7f4e487b7100000000000000000000000000000000000000000000000000000000600052604160045260246000fd5b6114dc82611493565b810181811067ffffffffffffffff821117156114fb576114fa6114a4565b5b80604052505050565b600061150e611475565b905061151a82826114d3565b919050565b600067ffffffffffffffff82111561153a576115396114a4565b5b61154382611493565b9050602081019050919050565b82818337600083830152505050565b600061157261156d8461151f565b611504565b90508281526020810184848401111561158e5761158d61148e565b5b611599848285611550565b509392505050565b600082601f8301126115b6576115b5611489565b5b81356115c684826020860161155f565b91505092915050565b6000819050919050565b6115e2816115cf565b81146115ed57600080fd5b50565b6000813590506115ff816115d9565b92915050565b600067ffffffffffffffff8211156116205761161f6114a4565b5b602082029050602081019050919050565b600080fd5b600061164961164484611605565b611504565b9050808382526020820190506020840283018581111561166c5761166b611631565b5b835b818110156116b357803567ffffffffffffffff81111561169157611690611489565b5b80860161169e89826115a1565b8552602085019450505060208101905061166e565b5050509392505050565b600082601f8301126116d2576116d1611489565b5b81356116e2848260208601611636565b91505092915050565b60008060008060008060c087890312156117085761170761147f565b5b600087013567ffffffffffffffff81111561172657611725611484565b5b61173289828a016115a1565b965050602087013567ffffffffffffffff81111561175357611752611484565b5b61175f89828a016115a1565b955050604061177089828a016115f0565b945050606061178189828a016115f0565b935050608061179289828a016115f0565b92505060a087013567ffffffffffffffff8111156117b3576117b2611484565b5b6117bf89828a016116bd565b9150509295509295509295565b600073ffffffffffffffffffffffffffffffffffffffff82169050919050565b6000819050919050565b600061181161180c611807846117cc565b6117ec565b6117cc565b9050919050565b6000611823826117f6565b9050919050565b600061183582611818565b9050919050565b6118458161182a565b82525050565b6000602082019050611860600083018461183c565b92915050565b6000611871826117cc565b9050919050565b61188181611866565b811461188c57600080fd5b50565b60008135905061189e81611878565b92915050565b6000602082840312156118ba576118b961147f565b5b60006118c88482850161188f565b91505092915050565b600081519050919050565b600082825260208201905092915050565b6000819050602082019050919050565b611906816115cf565b82525050565b600061191883836118fd565b60208301905092915050565b6000602082019050919050565b600061193c826118d1565b61194681856118dc565b9350611951836118ed565b8060005b83811015611982578151611969888261190c565b975061197483611924565b925050600181019050611955565b5085935050505092915050565b600081519050919050565b600082825260208201905092915050565b6000819050602082019050919050565b600081519050919050565b600082825260208201905092915050565b60005b838110156119f55780820151818401526020810190506119da565b60008484015250505050565b6000611a0c826119bb565b611a1681856119c6565b9350611a268185602086016119d7565b611a2f81611493565b840191505092915050565b600081519050919050565b600082825260208201905092915050565b6000819050602082019050919050565b6000611a728383611a01565b905092915050565b6000602082019050919050565b6000611a9282611a3a565b611a9c8185611a45565b935083602082028501611aae85611a56565b8060005b85811015611aea5784840389528151611acb8582611a66565b9450611ad683611a7a565b925060208a01995050600181019050611ab2565b50829750879550505050505092915050565b600060e083016000830151611b1460008601826118fd565b5060208301518482036020860152611b2c8282611a01565b91505060408301518482036040860152611b468282611a01565b9150506060830151611b5b60608601826118fd565b506080830151611b6e60808601826118fd565b5060a0830151611b8160a08601826118fd565b5060c083015184820360c0860152611b998282611a87565b9150508091505092915050565b6000611bb28383611afc565b905092915050565b6000602082019050919050565b6000611bd28261198f565b611bdc818561199a565b935083602082028501611bee856119ab565b8060005b85811015611c2a5784840389528151611c0b8582611ba6565b9450611c1683611bba565b925060208a01995050600181019050611bf2565b50829750879550505050505092915050565b60006060820190508181036000830152611c568186611931565b90508181036020830152611c6a8185611931565b90508181036040830152611c7e8184611bc7565b9050949350505050565b600060208284031215611c9e57611c9d61147f565b5b6000611cac848285016115f0565b91505092915050565b611cbe816115cf565b82525050565b600082825260208201905092915050565b6000611ce0826119bb565b611cea8185611cc4565b9350611cfa8185602086016119d7565b611d0381611493565b840191505092915050565b600082825260208201905092915050565b6000611d2a82611a3a565b611d348185611d0e565b935083602082028501611d4685611a56565b8060005b85811015611d825784840389528151611d638582611a66565b9450611d6e83611a7a565b925060208a01995050600181019050611d4a565b50829750879550505050505092915050565b600060e082019050611da9600083018a611cb5565b8181036020830152611dbb8189611cd5565b90508181036040830152611dcf8188611cd5565b9050611dde6060830187611cb5565b611deb6080830186611cb5565b611df860a0830185611cb5565b81810360c0830152611e0a8184611d1f565b905098975050505050505050565b60008060408385031215611e2f57611e2e61147f565b5b6000611e3d858286016115f0565b9250506020611e4e858286016115f0565b9150509250929050565b6000602082019050611e6d6000830184611cb5565b92915050565b60006020820190508181036000830152611e8d8184611bc7565b905092915050565b600060c082019050611eaa6000830189611cb5565b8181036020830152611ebc8188611cd5565b90508181036040830152611ed08187611cd5565b9050611edf6060830186611cb5565b611eec6080830185611cb5565b611ef960a0830184611cb5565b979650505050505050565b611f0d81611866565b82525050565b6000602082019050611f286000830184611f04565b92915050565b60008115159050919050565b611f4381611f2e565b8114611f4e57600080fd5b50565b600081519050611f6081611f3a565b92915050565b600060208284031215611f7c57611f7b61147f565b5b6000611f8a84828501611f51565b91505092915050565b7f4163636573732064656e6965643a20596f7520617265206e6f742041646d696e600082015250565b6000611fc9602083611cc4565b9150611fd482611f93565b602082019050919050565b60006020820190508181036000830152611ff881611fbc565b9050919050565b7f4e487b7100000000000000000000000000000000000000000000000000000000600052601160045260246000fd5b6000612039826115cf565b91507fffffffffffffffffffffffffffffffffffffffffffffffffffffffffffffffff820361206b5761206a611fff565b5b600182019050919050565b7f4e487b7100000000000000000000000000000000000000000000000000000000600052602260045260246000fd5b600060028204905060018216806120bd57607f821691505b6020821081036120d0576120cf612076565b5b50919050565b60008190508160005260206000209050919050565b60006020601f8301049050919050565b600082821b905092915050565b6000600883026121387fffffffffffffffffffffffffffffffffffffffffffffffffffffffffffffffff826120fb565b61214286836120fb565b95508019841693508086168417925050509392505050565b600061217561217061216b846115cf565b6117ec565b6115cf565b9050919050565b6000819050919050565b61218f8361215a565b6121a361219b8261217c565b848454612108565b825550505050565b600090565b6121b86121ab565b6121c3818484612186565b505050565b5b818110156121e7576121dc6000826121b0565b6001810190506121c9565b5050565b601f82111561222c576121fd816120d6565b612206846120eb565b81016020851015612215578190505b612229612221856120eb565b8301826121c8565b50505b505050565b600082821c905092915050565b600061224f60001984600802612231565b1980831691505092915050565b6000612268838361223e565b9150826002028217905092915050565b612281826119bb565b67ffffffffffffffff81111561229a576122996114a4565b5b6122a482546120a5565b6122af8282856121eb565b600060209050601f8311600181146122e257600084156122d0578287015190505b6122da858261225c565b865550612342565b601f1984166122f0866120d6565b60005b82811015612318578489015182556001820191506020850194506020810190506122f3565b868310156123355784890151612331601f89168261223e565b8355505b6001600288020188555050505b505050505050565b7f5573657220686173206e6f742073656c656374656420616e7920706f6c69636960008201527f6573000000000000000000000000000000000000000000000000000000000000602082015250565b60006123a6602283611cc4565b91506123b18261234a565b604082019050919050565b600060208201905081810360008301526123d581612399565b9050919050565b7f4e487b7100000000000000000000000000000000000000000000000000000000600052603260045260246000fd5b7f506f6c69637920646f6573206e6f742065786973740000000000000000000000600082015250565b6000612441601583611cc4565b915061244c8261240b565b602082019050919050565b6000602082019050818103600083015261247081612434565b9050919050565b7f4163636573732064656e6965643a20596f7520617265206e6f74206120506f6c60008201527f69637920486f6c64657200000000000000000000000000000000000000000000602082015250565b60006124d3602a83611cc4565b91506124de82612477565b604082019050919050565b60006020820190508181036000830152612502816124c6565b9050919050565b600060408201905061251e6000830185611cb5565b61252b6020830184611cb5565b9392505050565b600069ffffffffffffffffffff82169050919050565b61255181612532565b811461255c57600080fd5b50565b60008151905061256e81612548565b92915050565b6000819050919050565b61258781612574565b811461259257600080fd5b50565b6000815190506125a48161257e565b92915050565b6000815190506125b9816115d9565b92915050565b600080600080600060a086880312156125db576125da61147f565b5b60006125e98882890161255f565b95505060206125fa88828901612595565b945050604061260b888289016125aa565b935050606061261c888289016125aa565b925050608061262d8882890161255f565b9150509295509295909350565b7f496e76616c696420707269636520666565640000000000000000000000000000600082015250565b6000612670601283611cc4565b915061267b8261263a565b602082019050919050565b6000602082019050818103600083015261269f81612663565b9050919050565b60006126b1826115cf565b91506126bc836115cf565b92508282026126ca816115cf565b915082820484148315176126e1576126e0611fff565b5b5092915050565b7f4e487b7100000000000000000000000000000000000000000000000000000000600052601260045260246000fd5b6000612722826115cf565b915061272d836115cf565b92508261273d5761273c6126e8565b5b828204905092915050565b6000612753826115cf565b915061275e836115cf565b925082820390508181111561277657612775611fff565b5b9291505056fea264697066735822122083b5ff5df7d82724751c6598525137a4c24d82c886e5425c5ac863e7affab5ad64736f6c6343000813003360806040523480156200001157600080fd5b5060405162000ae538038062000ae5833981810160405281019062000037919062000161565b816000806101000a81548160ff021916908360ff16021790555062000062816200006a60201b60201c565b50506200022e565b8060018190555042600281905550600360008154809291906200008d90620001e1565b919050555080600460006003548152602001908152602001600020819055504260056000600354815260200190815260200160002081905550426006600060035481526020019081526020016000208190555050565b600080fd5b600060ff82169050919050565b6200010081620000e8565b81146200010c57600080fd5b50565b6000815190506200012081620000f5565b92915050565b6000819050919050565b6200013b8162000126565b81146200014757600080fd5b50565b6000815190506200015b8162000130565b92915050565b600080604083850312156200017b576200017a620000e3565b5b60006200018b858286016200010f565b92505060206200019e858286016200014a565b9150509250929050565b7f4e487b7100000000000000000000000000000000000000000000000000000000600052601160045260246000fd5b6000819050919050565b6000620001ee82620001d7565b91507fffffffffffffffffffffffffffffffffffffffffffffffffffffffffffffffff8203620002235762000222620001a8565b5b600182019050919050565b6108a7806200023e6000396000f3fe608060405234801561001057600080fd5b50600436106100b45760003560e01c80638205bf6a116100715780638205bf6a1461016b5780639a6fc8f514610189578063a87a20ce146101bd578063b5ab58dc146101d9578063b633620c14610209578063feaf968c14610239576100b4565b8063313ce567146100b95780634aa2011f146100d757806350d25bcd146100f357806354fd4d5014610111578063668a0f021461012f5780637284e4161461014d575b600080fd5b6100c161025b565b6040516100ce91906104d6565b60405180910390f35b6100f160048036038101906100ec91906105a4565b61026c565b005b6100fb6102e1565b604051610108919061061a565b60405180910390f35b6101196102e7565b6040516101269190610644565b60405180910390f35b6101376102ec565b6040516101449190610644565b60405180910390f35b6101556102f2565b60405161016291906106ef565b60405180910390f35b61017361032f565b6040516101809190610644565b60405180910390f35b6101a3600480360381019061019e9190610711565b610335565b6040516101b495949392919061074d565b60405180910390f35b6101d760048036038101906101d291906107a0565b6103b2565b005b6101f360048036038101906101ee91906107cd565b610429565b604051610200919061061a565b60405180910390f35b610223600480360381019061021e91906107cd565b610441565b6040516102309190610644565b60405180910390f35b610241610459565b60405161025295949392919061074d565b60405180910390f35b60008054906101000a900460ff1681565b8369ffffffffffffffffffff16600381905550826001819055508160028190555082600460006003548152602001908152602001600020819055508160056000600354815260200190815260200160002081905550806006600060035481526020019081526020016000208190555050505050565b60015481565b600081565b60035481565b60606040518060400160405280601f81526020017f76302e382f74657374732f4d6f636b563341676772656761746f722e736f6c00815250905090565b60025481565b600080600080600085600460008869ffffffffffffffffffff16815260200190815260200160002054600660008969ffffffffffffffffffff16815260200190815260200160002054600560008a69ffffffffffffffffffff16815260200190815260200160002054899450945094509450945091939590929450565b8060018190555042600281905550600360008154809291906103d390610829565b919050555080600460006003548152602001908152602001600020819055504260056000600354815260200190815260200160002081905550426006600060035481526020019081526020016000208190555050565b60046020528060005260406000206000915090505481565b60056020528060005260406000206000915090505481565b6000806000806000600354600460006003548152602001908152602001600020546006600060035481526020019081526020016000205460056000600354815260200190815260200160002054600354945094509450945094509091929394565b600060ff82169050919050565b6104d0816104ba565b82525050565b60006020820190506104eb60008301846104c7565b92915050565b600080fd5b600069ffffffffffffffffffff82169050919050565b610515816104f6565b811461052057600080fd5b50565b6000813590506105328161050c565b92915050565b6000819050919050565b61054b81610538565b811461055657600080fd5b50565b60008135905061056881610542565b92915050565b6000819050919050565b6105818161056e565b811461058c57600080fd5b50565b60008135905061059e81610578565b92915050565b600080600080608085870312156105be576105bd6104f1565b5b60006105cc87828801610523565b94505060206105dd87828801610559565b93505060406105ee8782880161058f565b92505060606105ff8782880161058f565b91505092959194509250565b61061481610538565b82525050565b600060208201905061062f600083018461060b565b92915050565b61063e8161056e565b82525050565b60006020820190506106596000830184610635565b92915050565b600081519050919050565b600082825260208201905092915050565b60005b8381101561069957808201518184015260208101905061067e565b60008484015250505050565b6000601f19601f8301169050919050565b60006106c18261065f565b6106cb818561066a565b93506106db81856020860161067b565b6106e4816106a5565b840191505092915050565b6000602082019050818103600083015261070981846106b6565b905092915050565b600060208284031215610727576107266104f1565b5b600061073584828501610523565b91505092915050565b610747816104f6565b82525050565b600060a082019050610762600083018861073e565b61076f602083018761060b565b61077c6040830186610635565b6107896060830185610635565b610796608083018461073e565b9695505050505050565b6000602082840312156107b6576107b56104f1565b5b60006107c484828501610559565b91505092915050565b6000602082840312156107e3576107e26104f1565b5b60006107f18482850161058f565b91505092915050565b7f4e487b7100000000000000000000000000000000000000000000000000000000600052601160045260246000fd5b60006108348261056e565b91507fffffffffffffffffffffffffffffffffffffffffffffffffffffffffffffffff8203610866576108656107fa565b5b60018201905091905056fea264697066735822122061d335eef712a4ed3e2a94954636215c556add327f6881aeac54851bbd9c6ab664736f6c63430008130033",
    "immutableReferences": {},
    "source": "// SPDX-License-Identifier: MIT\r\npragma solidity ^0.8.19;\r\n\r\nimport \"./RoleManagement.sol\";\r\nimport \"@chainlink/contracts/src/v0.8/tests/MockV3Aggregator.sol\";\r\n\r\ncontract PolicyManagement {\r\n\r\n    RoleManagement private roleManagement;\r\n    MockV3Aggregator public priceFeed; // Chainlink Mock price feed\r\n\r\n    struct Policy {\r\n        uint256 policyID;          \r\n        string insurancePlan;            \r\n        string basePremiumRate;\r\n        uint256 deductible;\r\n        uint256 insuranceCoverage;\r\n        uint256 thirdPartyLiability;\r\n        string[] cover;         \r\n    }\r\n\r\n    struct UserPolicySelection {\r\n        uint256 policyID;\r\n        uint256 premiumPriceETH; \r\n    }\r\n\r\n    mapping(uint256 => Policy) public policies;\r\n    mapping(address => UserPolicySelection[]) internal userPolicies;\r\n\r\n    uint256 public policyCount;               \r\n\r\n    event PolicyCreated(\r\n        uint256 policyID,\r\n        address indexed admin,\r\n        string insurancePlan,\r\n        string basePremiumRate,\r\n        uint256 deductible,\r\n        uint256 insuranceCoverage,\r\n        uint256 thirdPartyLiability,\r\n        string[] cover\r\n    );\r\n\r\n    event PolicySelected(\r\n        address indexed user, \r\n        uint256 policyID, \r\n        uint256 premiumPriceETH\r\n    );\r\n\r\n    // Modifier for admin access control\r\n    modifier onlyAdmin() {\r\n        require(roleManagement.isAdmin(msg.sender), \"Access denied: You are not Admin\");\r\n        _;\r\n    }\r\n\r\n    // Modifier for user access control\r\n    modifier onlyUser() {\r\n        require(roleManagement.isUser(msg.sender), \"Access denied: You are not a Policy Holder\");\r\n        _;\r\n    }\r\n\r\n    constructor(address _roleManagementAddress, int256 _initialPrice) {\r\n        roleManagement = RoleManagement(_roleManagementAddress);\r\n        priceFeed = new MockV3Aggregator(8, _initialPrice); // 8 decimal places for USD/ETH\r\n    }\r\n\r\n    /*\r\n     * @dev Admin creates a new policy. \r\n     */\r\n    function createPolicy(\r\n        string memory _insurancePlan,\r\n        string memory _basePremiumRate,\r\n        uint256 _deductible,\r\n        uint256 _insuranceCoverage,\r\n        uint256 _thirdPartyLiability,\r\n        string[] memory _cover\r\n    ) external onlyAdmin {\r\n        policyCount++;\r\n        policies[policyCount] = Policy(\r\n            policyCount, \r\n            _insurancePlan, \r\n            _basePremiumRate, \r\n            _deductible, \r\n            _insuranceCoverage, \r\n            _thirdPartyLiability, \r\n            _cover\r\n        );\r\n\r\n        emit PolicyCreated(\r\n            policyCount, \r\n            msg.sender, \r\n            _insurancePlan, \r\n            _basePremiumRate, \r\n            _deductible, \r\n            _insuranceCoverage, \r\n            _thirdPartyLiability, \r\n            _cover\r\n        );\r\n    }\r\n\r\n    /*\r\n     * @dev View details of a specific policy.\r\n     */\r\n    function viewPolicy(uint256 _policyID) external view returns (\r\n        uint256 policyID,\r\n        string memory insurancePlan,\r\n        string memory basePremiumRate,\r\n        uint256 deductible,\r\n        uint256 insuranceCoverage,\r\n        uint256 thirdPartyLiability,\r\n        string[] memory cover\r\n    ) {\r\n        require(_policyID > 0 && _policyID <= policyCount, \"Policy does not exist\");\r\n\r\n        Policy storage policy = policies[_policyID];\r\n\r\n        return (\r\n            policy.policyID,\r\n            policy.insurancePlan,\r\n            policy.basePremiumRate,\r\n            policy.deductible,\r\n            policy.insuranceCoverage,\r\n            policy.thirdPartyLiability,\r\n            policy.cover\r\n        );\r\n    }\r\n\r\n    /*\r\n     * @dev View all policies that exist in the contract.\r\n     */\r\n    function viewAllPolicies() external view returns (Policy[] memory) {\r\n        Policy[] memory allPolicies = new Policy[](policyCount);\r\n        for (uint256 i = 1; i <= policyCount; i++) {\r\n            allPolicies[i - 1] = policies[i];\r\n        }\r\n        return allPolicies;\r\n    }\r\n\r\n    /*\r\n     * @dev Allows users to select a policy and store the policyID with the premium price in ETH.\r\n     */\r\n    function selectPolicy(uint256 _policyID, uint256 _premiumInUSD) external payable onlyUser {\r\n        require(_policyID > 0 && _policyID <= policyCount, \"Policy does not exist\");\r\n\r\n        // Convert USD premium to ETH using Chainlink price feed\r\n        uint256 premiumInETH = getUSDToETH(_premiumInUSD);\r\n\r\n        userPolicies[msg.sender].push(UserPolicySelection(_policyID, premiumInETH));\r\n\r\n        emit PolicySelected(msg.sender, _policyID, premiumInETH);\r\n    }\r\n\r\n    /*\r\n     * @dev Converts USD to ETH using the Chainlink price feed.\r\n     */\r\n    function getUSDToETH(uint256 amountInUSD) public view returns (uint256) {\r\n        (, int256 price, , ,) = priceFeed.latestRoundData();\r\n        require(price > 0, \"Invalid price feed\");\r\n        uint256 ethPrice = uint256(price); // Scale Chainlink price from 8 decimals to 18 decimals\r\n        uint256 amountInWei = (amountInUSD * 1e18) / ethPrice; // convert to 18 decimal ETH\r\n\r\n\r\n        return amountInWei;\r\n    }\r\n\r\n    /*\r\n     * @dev View all selected policies for a specific user along with the premium price in ETH.\r\n     */\r\n    function getUserSelectedPolicies(address _user) external view returns (\r\n        uint256[] memory policyIDs,\r\n        uint256[] memory premiumPricesETH,\r\n        Policy[] memory policyDetails\r\n    ) {\r\n        uint256 totalPolicies = userPolicies[_user].length;\r\n        require(totalPolicies > 0, \"User has not selected any policies\");\r\n\r\n        uint256[] memory policyIDArray = new uint256[](totalPolicies);\r\n        uint256[] memory premiumPriceArray = new uint256[](totalPolicies);\r\n        Policy[] memory policyDetailsArray = new Policy[](totalPolicies);\r\n\r\n        for (uint256 i = 0; i < totalPolicies; i++) {\r\n            UserPolicySelection storage userSelection = userPolicies[_user][i];\r\n            policyIDArray[i] = userSelection.policyID;\r\n            premiumPriceArray[i] = userSelection.premiumPriceETH;\r\n            policyDetailsArray[i] = policies[userSelection.policyID];\r\n        }\r\n\r\n        return (policyIDArray, premiumPriceArray, policyDetailsArray);\r\n    }\r\n}\r\n",
    "sourcePath": "C:\\Work\\SIIT\\Blockchain\\DES484_carinsurance\\blockchain\\contracts\\PolicyManagement.sol",
    "compiler": {
        "name": "solc",
        "version": "0.8.19+commit.7dd6d404.Emscripten.clang"
    },
    "schemaVersion": "3.4.16",
    "updatedAt": "2024-12-13T20:09:30.047Z",
    "networkType": "ethereum",
    "devdoc": {
        "kind": "dev",
        "methods": {},
        "version": 1
    },
    "userdoc": {
        "kind": "user",
        "methods": {},
        "version": 1
    }
}