{
  "contractName": "RoleManagement",
  "abi": [
    {
      "inputs": [
        {
          "internalType": "address[]",
          "name": "initialAdmins",
          "type": "address[]"
        }
      ],
      "stateMutability": "nonpayable",
      "type": "constructor"
    },
    {
      "anonymous": false,
      "inputs": [
        {
          "indexed": true,
          "internalType": "address",
          "name": "account",
          "type": "address"
        }
      ],
      "name": "AdminAdded",
      "type": "event"
    },
    {
      "anonymous": false,
      "inputs": [
        {
          "indexed": true,
          "internalType": "address",
          "name": "account",
          "type": "address"
        }
      ],
      "name": "AdminRevoked",
      "type": "event"
    },
    {
      "anonymous": false,
      "inputs": [
        {
          "indexed": true,
          "internalType": "bytes32",
          "name": "role",
          "type": "bytes32"
        },
        {
          "indexed": true,
          "internalType": "bytes32",
          "name": "previousAdminRole",
          "type": "bytes32"
        },
        {
          "indexed": true,
          "internalType": "bytes32",
          "name": "newAdminRole",
          "type": "bytes32"
        }
      ],
      "name": "RoleAdminChanged",
      "type": "event"
    },
    {
      "anonymous": false,
      "inputs": [
        {
          "indexed": true,
          "internalType": "bytes32",
          "name": "role",
          "type": "bytes32"
        },
        {
          "indexed": true,
          "internalType": "address",
          "name": "account",
          "type": "address"
        },
        {
          "indexed": true,
          "internalType": "address",
          "name": "sender",
          "type": "address"
        }
      ],
      "name": "RoleGranted",
      "type": "event"
    },
    {
      "anonymous": false,
      "inputs": [
        {
          "indexed": true,
          "internalType": "bytes32",
          "name": "role",
          "type": "bytes32"
        },
        {
          "indexed": true,
          "internalType": "address",
          "name": "account",
          "type": "address"
        },
        {
          "indexed": true,
          "internalType": "address",
          "name": "sender",
          "type": "address"
        }
      ],
      "name": "RoleRevoked",
      "type": "event"
    },
    {
      "anonymous": false,
      "inputs": [
        {
          "indexed": true,
          "internalType": "address",
          "name": "account",
          "type": "address"
        }
      ],
      "name": "UserAdded",
      "type": "event"
    },
    {
      "anonymous": false,
      "inputs": [
        {
          "indexed": true,
          "internalType": "address",
          "name": "account",
          "type": "address"
        }
      ],
      "name": "UserRevoked",
      "type": "event"
    },
    {
      "inputs": [],
      "name": "ADMIN_ROLE",
      "outputs": [
        {
          "internalType": "bytes32",
          "name": "",
          "type": "bytes32"
        }
      ],
      "stateMutability": "view",
      "type": "function",
      "constant": true
    },
    {
      "inputs": [],
      "name": "DEFAULT_ADMIN_ROLE",
      "outputs": [
        {
          "internalType": "bytes32",
          "name": "",
          "type": "bytes32"
        }
      ],
      "stateMutability": "view",
      "type": "function",
      "constant": true
    },
    {
      "inputs": [],
      "name": "POLICY_HOLDER_ROLE",
      "outputs": [
        {
          "internalType": "bytes32",
          "name": "",
          "type": "bytes32"
        }
      ],
      "stateMutability": "view",
      "type": "function",
      "constant": true
    },
    {
      "inputs": [
        {
          "internalType": "bytes32",
          "name": "role",
          "type": "bytes32"
        }
      ],
      "name": "getRoleAdmin",
      "outputs": [
        {
          "internalType": "bytes32",
          "name": "",
          "type": "bytes32"
        }
      ],
      "stateMutability": "view",
      "type": "function",
      "constant": true
    },
    {
      "inputs": [
        {
          "internalType": "bytes32",
          "name": "role",
          "type": "bytes32"
        },
        {
          "internalType": "address",
          "name": "account",
          "type": "address"
        }
      ],
      "name": "grantRole",
      "outputs": [],
      "stateMutability": "nonpayable",
      "type": "function"
    },
    {
      "inputs": [
        {
          "internalType": "bytes32",
          "name": "role",
          "type": "bytes32"
        },
        {
          "internalType": "address",
          "name": "account",
          "type": "address"
        }
      ],
      "name": "hasRole",
      "outputs": [
        {
          "internalType": "bool",
          "name": "",
          "type": "bool"
        }
      ],
      "stateMutability": "view",
      "type": "function",
      "constant": true
    },
    {
      "inputs": [
        {
          "internalType": "bytes32",
          "name": "role",
          "type": "bytes32"
        },
        {
          "internalType": "address",
          "name": "account",
          "type": "address"
        }
      ],
      "name": "renounceRole",
      "outputs": [],
      "stateMutability": "nonpayable",
      "type": "function"
    },
    {
      "inputs": [
        {
          "internalType": "bytes32",
          "name": "role",
          "type": "bytes32"
        },
        {
          "internalType": "address",
          "name": "account",
          "type": "address"
        }
      ],
      "name": "revokeRole",
      "outputs": [],
      "stateMutability": "nonpayable",
      "type": "function"
    },
    {
      "inputs": [
        {
          "internalType": "bytes4",
          "name": "interfaceId",
          "type": "bytes4"
        }
      ],
      "name": "supportsInterface",
      "outputs": [
        {
          "internalType": "bool",
          "name": "",
          "type": "bool"
        }
      ],
      "stateMutability": "view",
      "type": "function",
      "constant": true
    },
    {
      "inputs": [
        {
          "internalType": "address",
          "name": "account",
          "type": "address"
        }
      ],
      "name": "addAdmin",
      "outputs": [],
      "stateMutability": "nonpayable",
      "type": "function"
    },
    {
      "inputs": [
        {
          "internalType": "address",
          "name": "account",
          "type": "address"
        }
      ],
      "name": "revokeAdmin",
      "outputs": [],
      "stateMutability": "nonpayable",
      "type": "function"
    },
    {
      "inputs": [],
      "name": "addUser",
      "outputs": [],
      "stateMutability": "nonpayable",
      "type": "function"
    },
    {
      "inputs": [
        {
          "internalType": "address",
          "name": "account",
          "type": "address"
        }
      ],
      "name": "revokeUser",
      "outputs": [],
      "stateMutability": "nonpayable",
      "type": "function"
    },
    {
      "inputs": [
        {
          "internalType": "address",
          "name": "account",
          "type": "address"
        }
      ],
      "name": "isAdmin",
      "outputs": [
        {
          "internalType": "bool",
          "name": "",
          "type": "bool"
        }
      ],
      "stateMutability": "view",
      "type": "function",
      "constant": true
    },
    {
      "inputs": [
        {
          "internalType": "address",
          "name": "account",
          "type": "address"
        }
      ],
      "name": "isUser",
      "outputs": [
        {
          "internalType": "bool",
          "name": "",
          "type": "bool"
        }
      ],
      "stateMutability": "view",
      "type": "function",
      "constant": true
    },
    {
      "inputs": [
        {
          "internalType": "address",
          "name": "account",
          "type": "address"
        }
      ],
      "name": "roleOfAddress",
      "outputs": [
        {
          "internalType": "string",
          "name": "role",
          "type": "string"
        }
      ],
      "stateMutability": "view",
      "type": "function",
      "constant": true
    }
  ],
  "bytecode": "0x60806040523480156200001157600080fd5b50604051620021513803806200215183398181016040528101906200003791906200058e565b60008151116200007e576040517f08c379a0000000000000000000000000000000000000000000000000000000008152600401620000759062000640565b60405180910390fd5b620000936000801b336200023d60201b60201c565b620000c57fa49807205ce4d355092ef5a8a18f56e8913cf4a201fbe287825b095693c21775336200023d60201b60201c565b3373ffffffffffffffffffffffffffffffffffffffff167f44d6d25963f097ad14f29f06854a01f575648a1ef82f30e562ccd3889717e33960405160405180910390a260005b8151811015620002355760008282815181106200012d576200012c62000662565b5b60200260200101519050600073ffffffffffffffffffffffffffffffffffffffff168173ffffffffffffffffffffffffffffffffffffffff1603620001a9576040517f08c379a0000000000000000000000000000000000000000000000000000000008152600401620001a090620006e1565b60405180910390fd5b620001db7fa49807205ce4d355092ef5a8a18f56e8913cf4a201fbe287825b095693c21775826200023d60201b60201c565b8073ffffffffffffffffffffffffffffffffffffffff167f44d6d25963f097ad14f29f06854a01f575648a1ef82f30e562ccd3889717e33960405160405180910390a25080806200022c906200073c565b9150506200010b565b505062000789565b6200024f82826200032e60201b60201c565b6200032a57600160008084815260200190815260200160002060000160008373ffffffffffffffffffffffffffffffffffffffff1673ffffffffffffffffffffffffffffffffffffffff16815260200190815260200160002060006101000a81548160ff021916908315150217905550620002cf6200039860201b60201c565b73ffffffffffffffffffffffffffffffffffffffff168173ffffffffffffffffffffffffffffffffffffffff16837f2f8788117e7eff1d82e926ec794901d17c78024a50270940304540a733656f0d60405160405180910390a45b5050565b600080600084815260200190815260200160002060000160008373ffffffffffffffffffffffffffffffffffffffff1673ffffffffffffffffffffffffffffffffffffffff16815260200190815260200160002060009054906101000a900460ff16905092915050565b600033905090565b6000604051905090565b600080fd5b600080fd5b600080fd5b6000601f19601f8301169050919050565b7f4e487b7100000000000000000000000000000000000000000000000000000000600052604160045260246000fd5b6200040482620003b9565b810181811067ffffffffffffffff82111715620004265762000425620003ca565b5b80604052505050565b60006200043b620003a0565b9050620004498282620003f9565b919050565b600067ffffffffffffffff8211156200046c576200046b620003ca565b5b602082029050602081019050919050565b600080fd5b600073ffffffffffffffffffffffffffffffffffffffff82169050919050565b6000620004af8262000482565b9050919050565b620004c181620004a2565b8114620004cd57600080fd5b50565b600081519050620004e181620004b6565b92915050565b6000620004fe620004f8846200044e565b6200042f565b905080838252602082019050602084028301858111156200052457620005236200047d565b5b835b818110156200055157806200053c8882620004d0565b84526020840193505060208101905062000526565b5050509392505050565b600082601f830112620005735762000572620003b4565b5b815162000585848260208601620004e7565b91505092915050565b600060208284031215620005a757620005a6620003aa565b5b600082015167ffffffffffffffff811115620005c857620005c7620003af565b5b620005d6848285016200055b565b91505092915050565b600082825260208201905092915050565b7f496e697469616c2061646d696e7320617272617920697320656d707479000000600082015250565b600062000628601d83620005df565b91506200063582620005f0565b602082019050919050565b600060208201905081810360008301526200065b8162000619565b9050919050565b7f4e487b7100000000000000000000000000000000000000000000000000000000600052603260045260246000fd5b7f496e76616c69642061646d696e20616464726573730000000000000000000000600082015250565b6000620006c9601583620005df565b9150620006d68262000691565b602082019050919050565b60006020820190508181036000830152620006fc81620006ba565b9050919050565b7f4e487b7100000000000000000000000000000000000000000000000000000000600052601160045260246000fd5b6000819050919050565b6000620007498262000732565b91507fffffffffffffffffffffffffffffffffffffffffffffffffffffffffffffffff82036200077e576200077d62000703565b5b600182019050919050565b6119b880620007996000396000f3fe608060405234801561001057600080fd5b50600436106101005760003560e01c8063455c928c1161009757806391d148541161006657806391d14854146102ab578063a217fddf146102db578063d547741f146102f9578063ef097fc41461031557610100565b8063455c928c146102375780634573e80214610241578063704802751461027157806375b238fc1461028d57610100565b80632d345670116100d35780632d345670146101b35780632f2ff15d146101cf57806336568abe146101eb5780634209fff11461020757610100565b806301ffc9a7146101055780631a6da93514610135578063248a9ca31461015357806324d7806c14610183575b600080fd5b61011f600480360381019061011a9190611191565b610331565b60405161012c91906111d9565b60405180910390f35b61013d6103ab565b60405161014a919061120d565b60405180910390f35b61016d60048036038101906101689190611254565b6103cf565b60405161017a919061120d565b60405180910390f35b61019d600480360381019061019891906112df565b6103ee565b6040516101aa91906111d9565b60405180910390f35b6101cd60048036038101906101c891906112df565b610421565b005b6101e960048036038101906101e4919061130c565b610594565b005b6102056004803603810190610200919061130c565b6105b5565b005b610221600480360381019061021c91906112df565b610638565b60405161022e91906111d9565b60405180910390f35b61023f61066b565b005b61025b600480360381019061025691906112df565b61074a565b60405161026891906113dc565b60405180910390f35b61028b600480360381019061028691906112df565b610862565b005b6102956109d6565b6040516102a2919061120d565b60405180910390f35b6102c560048036038101906102c0919061130c565b6109fa565b6040516102d291906111d9565b60405180910390f35b6102e3610a64565b6040516102f0919061120d565b60405180910390f35b610313600480360381019061030e919061130c565b610a6b565b005b61032f600480360381019061032a91906112df565b610a8c565b005b60007f7965db0b000000000000000000000000000000000000000000000000000000007bffffffffffffffffffffffffffffffffffffffffffffffffffffffff1916827bffffffffffffffffffffffffffffffffffffffffffffffffffffffff191614806103a457506103a382610bff565b5b9050919050565b7f47e673b02abe8c1fd5855942b3add23e5ceb73147ee7bae86726932d562feb0781565b6000806000838152602001908152602001600020600101549050919050565b600061041a7fa49807205ce4d355092ef5a8a18f56e8913cf4a201fbe287825b095693c21775836109fa565b9050919050565b7fa49807205ce4d355092ef5a8a18f56e8913cf4a201fbe287825b095693c2177561044b81610c69565b600073ffffffffffffffffffffffffffffffffffffffff168273ffffffffffffffffffffffffffffffffffffffff16036104ba576040517f08c379a00000000000000000000000000000000000000000000000000000000081526004016104b19061144a565b60405180910390fd5b6104e47fa49807205ce4d355092ef5a8a18f56e8913cf4a201fbe287825b095693c21775836109fa565b610523576040517f08c379a000000000000000000000000000000000000000000000000000000000815260040161051a906114b6565b60405180910390fd5b61054d7fa49807205ce4d355092ef5a8a18f56e8913cf4a201fbe287825b095693c2177583610c7d565b8173ffffffffffffffffffffffffffffffffffffffff167f631ff1c4e1a02c54b480a34b810e03bcee61fe38efcb243930a7f820914923e260405160405180910390a25050565b61059d826103cf565b6105a681610c69565b6105b08383610d5e565b505050565b6105bd610e3e565b73ffffffffffffffffffffffffffffffffffffffff168173ffffffffffffffffffffffffffffffffffffffff161461062a576040517f08c379a000000000000000000000000000000000000000000000000000000000815260040161062190611548565b60405180910390fd5b6106348282610c7d565b5050565b60006106647f47e673b02abe8c1fd5855942b3add23e5ceb73147ee7bae86726932d562feb07836109fa565b9050919050565b600033905061069a7f47e673b02abe8c1fd5855942b3add23e5ceb73147ee7bae86726932d562feb07826109fa565b156106da576040517f08c379a00000000000000000000000000000000000000000000000000000000081526004016106d1906115da565b60405180910390fd5b6107047f47e673b02abe8c1fd5855942b3add23e5ceb73147ee7bae86726932d562feb0782610d5e565b8073ffffffffffffffffffffffffffffffffffffffff167f19ef9a4877199f89440a26acb26895ec02ed86f2df1aeaa90dc18041b892f71f60405160405180910390a250565b60606107767fa49807205ce4d355092ef5a8a18f56e8913cf4a201fbe287825b095693c21775836109fa565b156107b8576040518060400160405280600a81526020017f41444d494e5f524f4c4500000000000000000000000000000000000000000000815250905061085d565b6107e27f47e673b02abe8c1fd5855942b3add23e5ceb73147ee7bae86726932d562feb07836109fa565b15610824576040518060400160405280601281526020017f504f4c4943595f484f4c4445525f524f4c450000000000000000000000000000815250905061085d565b6040518060400160405280600781526020017f4e4f5f524f4c450000000000000000000000000000000000000000000000000081525090505b919050565b7fa49807205ce4d355092ef5a8a18f56e8913cf4a201fbe287825b095693c2177561088c81610c69565b600073ffffffffffffffffffffffffffffffffffffffff168273ffffffffffffffffffffffffffffffffffffffff16036108fb576040517f08c379a00000000000000000000000000000000000000000000000000000000081526004016108f29061144a565b60405180910390fd5b6109257fa49807205ce4d355092ef5a8a18f56e8913cf4a201fbe287825b095693c21775836109fa565b15610965576040517f08c379a000000000000000000000000000000000000000000000000000000000815260040161095c90611646565b60405180910390fd5b61098f7fa49807205ce4d355092ef5a8a18f56e8913cf4a201fbe287825b095693c2177583610d5e565b8173ffffffffffffffffffffffffffffffffffffffff167f44d6d25963f097ad14f29f06854a01f575648a1ef82f30e562ccd3889717e33960405160405180910390a25050565b7fa49807205ce4d355092ef5a8a18f56e8913cf4a201fbe287825b095693c2177581565b600080600084815260200190815260200160002060000160008373ffffffffffffffffffffffffffffffffffffffff1673ffffffffffffffffffffffffffffffffffffffff16815260200190815260200160002060009054906101000a900460ff16905092915050565b6000801b81565b610a74826103cf565b610a7d81610c69565b610a878383610c7d565b505050565b7fa49807205ce4d355092ef5a8a18f56e8913cf4a201fbe287825b095693c21775610ab681610c69565b600073ffffffffffffffffffffffffffffffffffffffff168273ffffffffffffffffffffffffffffffffffffffff1603610b25576040517f08c379a0000000000000000000000000000000000000000000000000000000008152600401610b1c9061144a565b60405180910390fd5b610b4f7f47e673b02abe8c1fd5855942b3add23e5ceb73147ee7bae86726932d562feb07836109fa565b610b8e576040517f08c379a0000000000000000000000000000000000000000000000000000000008152600401610b85906116b2565b60405180910390fd5b610bb87f47e673b02abe8c1fd5855942b3add23e5ceb73147ee7bae86726932d562feb0783610c7d565b8173ffffffffffffffffffffffffffffffffffffffff167fb43ac7bf01d16ebcb8c868a4c03fecb1f6984ea4fa1a52c116ef282b8dbb17c560405160405180910390a25050565b60007f01ffc9a7000000000000000000000000000000000000000000000000000000007bffffffffffffffffffffffffffffffffffffffffffffffffffffffff1916827bffffffffffffffffffffffffffffffffffffffffffffffffffffffff1916149050919050565b610c7a81610c75610e3e565b610e46565b50565b610c8782826109fa565b15610d5a57600080600084815260200190815260200160002060000160008373ffffffffffffffffffffffffffffffffffffffff1673ffffffffffffffffffffffffffffffffffffffff16815260200190815260200160002060006101000a81548160ff021916908315150217905550610cff610e3e565b73ffffffffffffffffffffffffffffffffffffffff168173ffffffffffffffffffffffffffffffffffffffff16837ff6391f5c32d9c69d2a47ea670b442974b53935d1edc7fd64eb21e047a839171b60405160405180910390a45b5050565b610d6882826109fa565b610e3a57600160008084815260200190815260200160002060000160008373ffffffffffffffffffffffffffffffffffffffff1673ffffffffffffffffffffffffffffffffffffffff16815260200190815260200160002060006101000a81548160ff021916908315150217905550610ddf610e3e565b73ffffffffffffffffffffffffffffffffffffffff168173ffffffffffffffffffffffffffffffffffffffff16837f2f8788117e7eff1d82e926ec794901d17c78024a50270940304540a733656f0d60405160405180910390a45b5050565b600033905090565b610e5082826109fa565b610ec757610e5d81610ecb565b610e6b8360001c6020610ef8565b604051602001610e7c9291906117a6565b6040516020818303038152906040526040517f08c379a0000000000000000000000000000000000000000000000000000000008152600401610ebe91906113dc565b60405180910390fd5b5050565b6060610ef18273ffffffffffffffffffffffffffffffffffffffff16601460ff16610ef8565b9050919050565b606060006002836002610f0b9190611819565b610f15919061185b565b67ffffffffffffffff811115610f2e57610f2d61188f565b5b6040519080825280601f01601f191660200182016040528015610f605781602001600182028036833780820191505090505b5090507f300000000000000000000000000000000000000000000000000000000000000081600081518110610f9857610f976118be565b5b60200101907effffffffffffffffffffffffffffffffffffffffffffffffffffffffffffff1916908160001a9053507f780000000000000000000000000000000000000000000000000000000000000081600181518110610ffc57610ffb6118be565b5b60200101907effffffffffffffffffffffffffffffffffffffffffffffffffffffffffffff1916908160001a9053506000600184600261103c9190611819565b611046919061185b565b90505b60018111156110e6577f3031323334353637383961626364656600000000000000000000000000000000600f861660108110611088576110876118be565b5b1a60f81b82828151811061109f5761109e6118be565b5b60200101907effffffffffffffffffffffffffffffffffffffffffffffffffffffffffffff1916908160001a905350600485901c9450806110df906118ed565b9050611049565b506000841461112a576040517f08c379a000000000000000000000000000000000000000000000000000000000815260040161112190611962565b60405180910390fd5b8091505092915050565b600080fd5b60007fffffffff0000000000000000000000000000000000000000000000000000000082169050919050565b61116e81611139565b811461117957600080fd5b50565b60008135905061118b81611165565b92915050565b6000602082840312156111a7576111a6611134565b5b60006111b58482850161117c565b91505092915050565b60008115159050919050565b6111d3816111be565b82525050565b60006020820190506111ee60008301846111ca565b92915050565b6000819050919050565b611207816111f4565b82525050565b600060208201905061122260008301846111fe565b92915050565b611231816111f4565b811461123c57600080fd5b50565b60008135905061124e81611228565b92915050565b60006020828403121561126a57611269611134565b5b60006112788482850161123f565b91505092915050565b600073ffffffffffffffffffffffffffffffffffffffff82169050919050565b60006112ac82611281565b9050919050565b6112bc816112a1565b81146112c757600080fd5b50565b6000813590506112d9816112b3565b92915050565b6000602082840312156112f5576112f4611134565b5b6000611303848285016112ca565b91505092915050565b6000806040838503121561132357611322611134565b5b60006113318582860161123f565b9250506020611342858286016112ca565b9150509250929050565b600081519050919050565b600082825260208201905092915050565b60005b8381101561138657808201518184015260208101905061136b565b60008484015250505050565b6000601f19601f8301169050919050565b60006113ae8261134c565b6113b88185611357565b93506113c8818560208601611368565b6113d181611392565b840191505092915050565b600060208201905081810360008301526113f681846113a3565b905092915050565b7f496e76616c696420616464726573730000000000000000000000000000000000600082015250565b6000611434600f83611357565b915061143f826113fe565b602082019050919050565b6000602082019050818103600083015261146381611427565b9050919050565b7f41646472657373206973206e6f7420616e2061646d696e000000000000000000600082015250565b60006114a0601783611357565b91506114ab8261146a565b602082019050919050565b600060208201905081810360008301526114cf81611493565b9050919050565b7f416363657373436f6e74726f6c3a2063616e206f6e6c792072656e6f756e636560008201527f20726f6c657320666f722073656c660000000000000000000000000000000000602082015250565b6000611532602f83611357565b915061153d826114d6565b604082019050919050565b6000602082019050818103600083015261156181611525565b9050919050565b7f4164647265737320697320616c7265616479206120706f6c69637920686f6c6460008201527f6572000000000000000000000000000000000000000000000000000000000000602082015250565b60006115c4602283611357565b91506115cf82611568565b604082019050919050565b600060208201905081810360008301526115f3816115b7565b9050919050565b7f4164647265737320697320616c726561647920616e2061646d696e0000000000600082015250565b6000611630601b83611357565b915061163b826115fa565b602082019050919050565b6000602082019050818103600083015261165f81611623565b9050919050565b7f41646472657373206973206e6f74206120706f6c69637920686f6c6465720000600082015250565b600061169c601e83611357565b91506116a782611666565b602082019050919050565b600060208201905081810360008301526116cb8161168f565b9050919050565b600081905092915050565b7f416363657373436f6e74726f6c3a206163636f756e7420000000000000000000600082015250565b60006117136017836116d2565b915061171e826116dd565b601782019050919050565b60006117348261134c565b61173e81856116d2565b935061174e818560208601611368565b80840191505092915050565b7f206973206d697373696e6720726f6c6520000000000000000000000000000000600082015250565b60006117906011836116d2565b915061179b8261175a565b601182019050919050565b60006117b182611706565b91506117bd8285611729565b91506117c882611783565b91506117d48284611729565b91508190509392505050565b6000819050919050565b7f4e487b7100000000000000000000000000000000000000000000000000000000600052601160045260246000fd5b6000611824826117e0565b915061182f836117e0565b925082820261183d816117e0565b91508282048414831517611854576118536117ea565b5b5092915050565b6000611866826117e0565b9150611871836117e0565b9250828201905080821115611889576118886117ea565b5b92915050565b7f4e487b7100000000000000000000000000000000000000000000000000000000600052604160045260246000fd5b7f4e487b7100000000000000000000000000000000000000000000000000000000600052603260045260246000fd5b60006118f8826117e0565b91506000820361190b5761190a6117ea565b5b600182039050919050565b7f537472696e67733a20686578206c656e67746820696e73756666696369656e74600082015250565b600061194c602083611357565b915061195782611916565b602082019050919050565b6000602082019050818103600083015261197b8161193f565b905091905056fea264697066735822122025d091373e059f13e00ae8bdd596a8a1545a9dc8976a1ce343831bb889e3a18b64736f6c63430008130033",
  "immutableReferences": {},
  "source": "// SPDX-License-Identifier: MIT\npragma solidity ^0.8.19;\n\nimport \"@openzeppelin/contracts/access/AccessControl.sol\";\n\ncontract RoleManagement is AccessControl {\n    // Define roles using OpenZeppelin AccessControl\n    bytes32 public constant ADMIN_ROLE = keccak256(\"ADMIN_ROLE\");\n    bytes32 public constant POLICY_HOLDER_ROLE = keccak256(\"POLICY_HOLDER_ROLE\");\n\n    // Events for role changes\n    event AdminAdded(address indexed account);\n    event AdminRevoked(address indexed account);\n    event UserAdded(address indexed account);\n    event UserRevoked(address indexed account);\n\n    constructor(address[] memory initialAdmins) {\n        require(initialAdmins.length > 0, \"Initial admins array is empty\");\n\n        // Assign the deployer as the contract owner and grant them DEFAULT_ADMIN_ROLE and ADMIN_ROLE\n        _grantRole(DEFAULT_ADMIN_ROLE, msg.sender);\n        _grantRole(ADMIN_ROLE, msg.sender);\n        emit AdminAdded(msg.sender);\n\n        // Assign ADMIN_ROLE to all provided initial admins\n        for (uint256 i = 0; i < initialAdmins.length; i++) {\n            address admin = initialAdmins[i];\n            require(admin != address(0), \"Invalid admin address\");\n            _grantRole(ADMIN_ROLE, admin);\n            emit AdminAdded(admin);\n        }\n    }\n\n    /*\n     @dev Grants an account the ADMIN_ROLE. Only other admins can call this function.\n     @param account Address to be granted the ADMIN role.\n     */\n    function addAdmin(address account) external onlyRole(ADMIN_ROLE) {\n        require(account != address(0), \"Invalid address\");\n        require(!hasRole(ADMIN_ROLE, account), \"Address is already an admin\");\n\n        _grantRole(ADMIN_ROLE, account);\n        emit AdminAdded(account);\n    }\n\n    /*\n     * @dev Revokes ADMIN_ROLE from an account. Only admins can revoke the role.\n     * @param account Address to have the ADMIN role revoked.\n     */\n    function revokeAdmin(address account) external onlyRole(ADMIN_ROLE) {\n        require(account != address(0), \"Invalid address\");\n        require(hasRole(ADMIN_ROLE, account), \"Address is not an admin\");\n\n        _revokeRole(ADMIN_ROLE, account);\n        emit AdminRevoked(account);\n    }\n\n    /*\n     * @dev Allows a user to register as a POLICY_HOLDER by granting them the POLICY_HOLDER_ROLE.\n     * Users register themselves by calling this function.\n     */\n    function addUser() external {\n        address account = msg.sender;\n        require(!hasRole(POLICY_HOLDER_ROLE, account), \"Address is already a policy holder\");\n\n        _grantRole(POLICY_HOLDER_ROLE, account);\n        emit UserAdded(account);\n    }\n\n    /*\n     * @dev Allows an admin to revoke POLICY_HOLDER_ROLE from an address.\n     * @param account Address to have the POLICY_HOLDER role revoked.\n     */\n    function revokeUser(address account) external onlyRole(ADMIN_ROLE) {\n        require(account != address(0), \"Invalid address\");\n        require(hasRole(POLICY_HOLDER_ROLE, account), \"Address is not a policy holder\");\n\n        _revokeRole(POLICY_HOLDER_ROLE, account);\n        emit UserRevoked(account);\n    }\n\n    /*\n     * @dev Checks if an address has the ADMIN_ROLE.\n     * @param account The address to check.\n     * @return bool True if the address has the ADMIN_ROLE, otherwise false.\n     */\n    function isAdmin(address account) external view returns (bool) {\n        return hasRole(ADMIN_ROLE, account);\n    }\n\n    /*\n     * @dev Checks if an address has the POLICY_HOLDER_ROLE.\n     * @param account The address to check.\n     * @return bool True if the address has the POLICY_HOLDER_ROLE, otherwise false.\n     */\n    function isUser(address account) external view returns (bool) {\n        return hasRole(POLICY_HOLDER_ROLE, account);\n    }\n\n    /*\n     * @dev Returns the role of a given address.\n     * @param account The address to check.\n     * @return role The role associated with the address.\n     */\n    function roleOfAddress(address account) external view returns (string memory role) {\n        if (hasRole(ADMIN_ROLE, account)) {\n            return \"ADMIN_ROLE\";\n        } else if (hasRole(POLICY_HOLDER_ROLE, account)) {\n            return \"POLICY_HOLDER_ROLE\";\n        } else {\n            return \"NO_ROLE\";\n        }\n    }\n}\n",
  "sourcePath": "C:\\Work\\SIIT\\Blockchain\\DES484_carinsurance\\blockchain\\contracts\\RoleManagement.sol",
  "compiler": {
    "name": "solc",
    "version": "0.8.19+commit.7dd6d404.Emscripten.clang"
  },
  "schemaVersion": "3.4.16",
  "updatedAt": "2024-12-13T13:34:06.281Z",
  "networkType": "ethereum",
  "devdoc": {
    "events": {
      "RoleAdminChanged(bytes32,bytes32,bytes32)": {
        "details": "Emitted when `newAdminRole` is set as ``role``'s admin role, replacing `previousAdminRole` `DEFAULT_ADMIN_ROLE` is the starting admin for all roles, despite {RoleAdminChanged} not being emitted signaling this. _Available since v3.1._"
      },
      "RoleGranted(bytes32,address,address)": {
        "details": "Emitted when `account` is granted `role`. `sender` is the account that originated the contract call, an admin role bearer except when using {AccessControl-_setupRole}."
      },
      "RoleRevoked(bytes32,address,address)": {
        "details": "Emitted when `account` is revoked `role`. `sender` is the account that originated the contract call:   - if using `revokeRole`, it is the admin role bearer   - if using `renounceRole`, it is the role bearer (i.e. `account`)"
      }
    },
    "kind": "dev",
    "methods": {
      "getRoleAdmin(bytes32)": {
        "details": "Returns the admin role that controls `role`. See {grantRole} and {revokeRole}. To change a role's admin, use {_setRoleAdmin}."
      },
      "grantRole(bytes32,address)": {
        "details": "Grants `role` to `account`. If `account` had not been already granted `role`, emits a {RoleGranted} event. Requirements: - the caller must have ``role``'s admin role. May emit a {RoleGranted} event."
      },
      "hasRole(bytes32,address)": {
        "details": "Returns `true` if `account` has been granted `role`."
      },
      "renounceRole(bytes32,address)": {
        "details": "Revokes `role` from the calling account. Roles are often managed via {grantRole} and {revokeRole}: this function's purpose is to provide a mechanism for accounts to lose their privileges if they are compromised (such as when a trusted device is misplaced). If the calling account had been revoked `role`, emits a {RoleRevoked} event. Requirements: - the caller must be `account`. May emit a {RoleRevoked} event."
      },
      "revokeRole(bytes32,address)": {
        "details": "Revokes `role` from `account`. If `account` had been granted `role`, emits a {RoleRevoked} event. Requirements: - the caller must have ``role``'s admin role. May emit a {RoleRevoked} event."
      },
      "supportsInterface(bytes4)": {
        "details": "See {IERC165-supportsInterface}."
      }
    },
    "version": 1
  },
  "userdoc": {
    "kind": "user",
    "methods": {},
    "version": 1
  }
}